:100000000C9446000C9465000C9465000C946500FB
:100010000C9465000C9465000C9465000C946500CC
:100020000C9465000C9465000C9465000C946500BC
:100030000C944E0A0C9465000C9465000C946500B9
:100040000C9465000C9465000C9465000C9465009C
:100050000C9465000C9465000C9465000C9465008C
:100060000C9465000C9465000C9465000C9465007C
:100070000C9465000C9465000C9465000C9465006C
:100080000C9465000C9465000C94650011241FBE4F
:10009000CFEFD0E1DEBFCDBF12E0A0E0B1E0EAE8F3
:1000A000FEE100E00BBF02C007900D92A633B1073E
:1000B000D9F712E0A6E3B2E001C01D92AD37B10757
:1000C000E1F70E94D00C0C94430F0C940000DF93D6
:1000D000CF930F92CDB7DEB7982F09C0198203C016
:1000E00089818F5F898389818230D0F391509923F0
:1000F000A9F70F90CF91DF910895FF920F931F936F
:10010000F82E80916E02982F9D7001E010E8F801A2
:1001100090838C7080936E02808385E00E946700DC
:1001200080916E02846080936E02F8018083F09269
:1001300000808AE00E94670080916E028B7080933D
:100140006E02F801808385E00E9467001F910F9185
:10015000FF900895FF920F931F93F82E80916E02E7
:100160008D7001E010E8F8018083816080936E0259
:10017000808385E00E94670080916E028460809396
:100180006E02F8018083F09200808AE00E9467008E
:1001900080916E028B7080936E02F801808385E0FF
:1001A0000E9467001F910F91FF9008950F931F9376
:1001B00068EE73E00E94C10E182F092F64E670E00C
:1001C0000E94C10E862F805D0E94AA00812F902F71
:1001D00064E670E00E94C10E182F092F6AE070E0FB
:1001E0000E94C10E862F805D0E94AA00812F902F51
:1001F0006AE070E00E94C10E805D0E94AA001F911B
:100200000F9108950F931F938C0168EE73E00E9485
:10021000C10ECB010E94D600C8010E94D6001F91DA
:100220000F9108950F931F9364E670E00E94C10E32
:100230008C0124E0969587952A95E1F7805D0E94D0
:10024000AA000F70802F805D0E94AA001F910F915D
:1002500008950F931F9364E670E00E94C10E182F5B
:10026000092F6AE070E00E94C10E862F805D0E9417
:10027000AA00812F902F6AE070E00E94C10E805D7D
:100280000E94AA001F910F9108950F931F938C0154
:1002900068EE73E00E94C10ECB010E942901C801E3
:1002A0000E94D6001F910F9108956AE070E00E94AD
:1002B000C10E805D0E94AA0008950F931F938C01C8
:1002C00068EE73E00E94C10ECB010E945501C80187
:1002D0000E94D6001F910F9108951F93182F8295A9
:1002E0008F708A3010F4805D01C0895A0E94AA0084
:1002F000812F8F708A3010F4805D01C0895A0E946E
:10030000AA001F910895FF920F931F93082F843620
:10031000F0F064E60E94B50E182F805D0E94AA00DE
:100320008CE99FEF189F102D1124100F812F6AE088
:100330000E94B50E082F805D0E94AA00105D86EF16
:100340009FEF089F002D1124802F810F1FC030E3E5
:10035000F32EF80E8A3098F080E20E94AA00802FD7
:100360006AE00E94B50E182F805D0E94AA0086EFF9
:100370009FEF189F102D1124812F8F0D07C080E251
:100380000E94AA0080E20E94AA008F2D0E94AA006B
:100390001F910F91FF900895CF93DF93EC0103C05D
:1003A0000E94AA00219688818823D1F7DF91CF91FE
:1003B000089581E00E947D008AEF0E946700089501
:1003C000DF93CF9300D000D000D0CDB7DEB796E05A
:1003D000FE013196DF01892F1D928A95E9F788E3A6
:1003E00089838CE08A839B8380916E028B70E1E02D
:1003F000F0E88083982F92609083836080936E02F0
:10040000808388EC0E94670089810E947D008A8138
:100410000E947D0086E00E947D000E94D901269600
:100420000FB6F894DEBF0FBECDBFCF91DF91089518
:10043000613019F0623071F407C081580E947D006C
:100440008EE10E946700089581540E947D008EE134
:100450000E9467000895CF93DF93982FEB0181E00E
:10046000692F0E94180203C00E94AA002196888169
:100470008823D1F7DF91CF9108951F9310E080E09A
:100480000E94AA008EE10E9467001F5F1831B9F731
:100490001F910895EF92FF921F93CF93DF937C01FA
:1004A00010E00BC0103111F40E943D0288810E94BF
:1004B000AA008EE10E9467001F5FE701C10FD11DF6
:1004C0008881882379F7DF91CF911F91FF90EF907A
:1004D00008950895DF93CF9300D000D0CDB7DEB755
:1004E0009C0181E090E09A83898341E050E012C052
:1004F0005C834B8305C08B819C8101969C838B839D
:100500008B819C8188559240B4F389819A810196B0
:100510009A83898389819A81821793074CF30F907C
:100520000F900F900F90CF91DF9108951BBA8FEF2E
:100530008ABB18BA17BA15BA93E094BB12BA11BAAB
:1005400013B812B810926200109261001092650008
:10055000E4E6F0E0908382BB81BB88BB17BA8FE1F1
:10056000808380E880930380089596B3892F880F55
:10057000880F880F82BB983009F43BC0993040F453
:10058000923009F1943051F1913009F069C010C0F6
:10059000903209F444C0913220F4903109F060C0E7
:1005A00033C0903409F446C0903809F059C04DC0AA
:1005B00088EB9BE020E931E0F9013197F1F70197F1
:1005C000D9F780E3089588EB9BE020E931E0F90159
:1005D0003197F1F70197D9F781E3089588EB9BE014
:1005E00020E931E0F9013197F1F70197D9F782E37A
:1005F000089588EB9BE020E931E0F9013197F1F7AC
:100600000197D9F783E3089588EB9BE020E931E077
:10061000F9013197F1F70197D9F784E3089588EB51
:100620009BE020E931E0F9013197F1F70197D9F723
:1006300085E3089588EB9BE020E931E0F9013197EB
:10064000F1F70197D9F786E3089588EB9BE020E95D
:1006500031E0F9013197F1F70197D9F787E3089570
:1006600088EB9BE020E931E0F9013197F1F7019740
:10067000D9F780E008951FBC8CE08EBD84E294EF32
:100680009BBD8ABD80E187BF0895F8941CBE10927F
:100690006D000E94960280E885BF10926A001ABE23
:1006A00019BE80E187BF10927D0078940895FB0108
:1006B00064E070E00E94D50E8130910571F08230C7
:1006C00091051CF4892B39F019C08230910539F05D
:1006D0000397A1F406C08EEF05C08DEF03C08BEF2A
:1006E00001C087EF80930380E750FE4F80818093A5
:1006F000028085E090E00E946A02089580E090E028
:1007000008950E94A80D7DBD6CBDE5E6F0E08081F6
:1007100090E1892780830895009719F4109208804A
:1007200008958130910511F481E009C0823091056E
:1007300011F483E004C08330910521F487E08093B5
:1007400008800895049719F48FE080930880089535
:10075000FC0180819181680F791F7183608377FF2D
:1007600002C011821082808191810895FC018281F2
:100770009381680F791F73836283161617062CF016
:1007800081E090E09383828310C06D3071056CF03E
:1007900081E090E0938382838081918101969183AF
:1007A000808397FF02C01182108282819381089515
:1007B000CF93DF93EC018C819D81680F791F7D833E
:1007C0006C831616170624F081E090E09D838C83DD
:1007D000EA81FB81E230F10571F0EE0FFF1FEC5F63
:1007E000FD4F208131818C819D81281739073CF58F
:1007F0003D832C8324C028813981C90164E670E0DF
:100800000E94D50E892B29F0C90183709070892B25
:1008100039F0C90160E971E00E94D50E892B39F4E5
:100820008C819D814E975CF08DE190E006C08C81BB
:100830009D814D9724F08CE190E09D838C838C8189
:100840009D81DF91CF910895CF93DF93EC018E814D
:100850009F81680F791F7F836E8377FF05C087E1D3
:1008600090E09F838E830CC0683171054CF0685115
:1008700070407F836E83CE0161E070E00E94D803F8
:100880008E819F81DF91CF910895CF93DF93EC010B
:1008900088859985680F791F7987688777FF08C0F1
:1008A0008BE390E099878887CE016FEF7FEF0AC0D6
:1008B0006C3371054CF06C53704079876887CE01BA
:1008C00061E070E00E94240488859985DF91CF91D2
:1008D0000895CF93DF93EC018A859B85680F791F7C
:1008E0007B876A8777FF08C08BE390E09B878A87C6
:1008F000CE016FEF7FEF08C06C3371053CF01B86B3
:100900001A86CE0161E070E00E9445048A859B85CD
:10091000DF91CF910895DC01FB01808191811196D7
:100920009C938E938281938113969C938E931297BE
:100930008481958115969C938E93149786819781D7
:1009400017969C938E9316978085918519969C9304
:100950008E931897828593851B969C938E931A97F6
:1009600008950F931F938C018BE062E00E941802A0
:1009700080E091E00E944A028BE062E00E9418024F
:10098000C8010E944A021F910F910895FF920F9390
:100990001F93F82E8B0181E06F2D0E941802F80141
:1009A000868197810E9429018AE30E94AA0084E03F
:1009B0006F2D0E941802F801808591850E942901FF
:1009C0008AE30E94AA0087E06F2D0E941802F801B6
:1009D000828593850E9429011F910F91FF900895B0
:1009E000DF92EF92FF920F931F93DF93CF93CDB7D8
:1009F000DEB72C970FB6F894DEBF0FBECDBF83E0F5
:100A000090E090934102809340020E94D90184EFCC
:100A100091E020E931E0F9013197F1F70197D9F739
:100A20007E010894E11CF11C0E94B502803309F498
:100A300003C1873309F0E6C087E091E00E94B1046A
:100A400080916202909163029A838983809164020B
:100A5000909165029C838B838091660290916702DE
:100A60009E838D83809168029091690298878F831D
:100A700080916A0290916B029A87898780916C02BB
:100A800090916D029C878B8700E010E00E94B50278
:100A9000D82E86E3D81649F50F5F1F4F0430110595
:100AA00091F001301105B1F00230110524F4011567
:100AB000110549F06BC00230110579F003301105C2
:100AC00009F064C00DC087E091E00E94B10400E02D
:100AD00010E05CC08EE091E005C085E191E002C0CD
:100AE0008CE191E00E94B10451C085E3D816D1F4A5
:100AF0000130110579F00230110524F401151105BA
:100B000029F044C002301105E9F408C0C70161E0D2
:100B100070E01FC0C70161E070E021C0C70161E063
:100B200070E023C084E3D81689F501301105A1F0E7
:100B30000230110524F40115110541F027C00230DF
:100B4000110581F00330110509F512C0C7016FEFDF
:100B50007FEF0E9424041AC0C7016FEF7FEF0E944D
:100B6000450414C0C7016FEF7FEF0E9469040EC0F7
:100B700020E030E08091380290913902892B11F405
:100B800021E030E0309339022093380281E090E098
:100B9000B7010E94C6048091380290913902892BD6
:100BA00021F482E063E271E003C082E067E271E079
:100BB0000E942B0287E3D81609F068CF89819A81B9
:100BC00090936302809362028B819C819093650273
:100BD000809364028D819E81909367028093660268
:100BE0008F819885909369028093680289859A85A0
:100BF00090936B0280936A028B859C8590936D0223
:100C000080936C0281E090E062E672E00E94C6048C
:100C10008091380290913902892B21F482E063E2BD
:100C200071E003C082E067E271E00E942B028BE278
:100C300091E00E94B104F8CE2C960FB6F894DEBF76
:100C40000FBECDBFCF91DF911F910F91FF90EF901D
:100C5000DF900895CF93DF9382E090E0909341027C
:100C6000809340020E94D90184EF91E020E931E0B5
:100C7000F9013197F1F70197D9F78BE061E00E9414
:100C8000180281E391E00E944A02C0E0D0E0209780
:100C900031F482E068E371E00E942B0206C082E03A
:100CA00090E061E772E00E94C60481E090E062E4B7
:100CB00072E00E94C6040E94B502833369F1843356
:100CC00038F48133B9F1823370F58033C9F574C0DB
:100CD0008533A1F08533C8F0863349F0873381F539
:100CE00086E491E00E94B104C1E0D0E029C089E42B
:100CF00091E00E94B104C2E0D0E022C080E591E022
:100D00000E94B104C3E0D0E01BC086E591E00E94E0
:100D1000B104C4E0D0E014C08DE591E00E94B104BC
:100D2000C5E0D0E00DC084E691E00E94B104C6E0C9
:100D3000D0E006C08BE691E00E94B104C7E0D0E0AD
:100D400080914202909143029093720280937102CB
:100D500080914402909145029093740280937302B3
:100D6000809146029091470290937602809375029B
:100D70008091480290914902909378028093770283
:100D800080914A0290914B0290937A02809379026B
:100D900080914C0290914D0290937C0280937B0253
:100DA000FE01EE0FFF1FEA5DFD4F6081718181E75B
:100DB00092E00E9424046BCFDF91CF9108950F93AE
:100DC0001F93982F8B0181E0692F0E941802F80170
:100DD000808191810E945D018EE20E94AA00F8014B
:100DE000828193810E9429018EE20E94AA00F8016B
:100DF000848195810E9429011F910F910895DF92AE
:100E0000EF92FF920F931F93DF93CF93CDB7DEB78F
:100E10002C970FB6F894DEBF0FBECDBF81E090E0F7
:100E200090934102809340020E94D90184EF91E0A7
:100E300020E931E0F9013197F1F70197D9F77E0107
:100E40000894E11CF11C0E94B502803309F421C111
:100E5000873309F00DC18FE691E00E94B1048091C3
:100E60004202909143029A83898380914402909137
:100E700045029C838B8380914602909147029E831A
:100E80008D83809148029091490298878F83809149
:100E90004A0290914B029A87898780914C029091E7
:100EA0004D029C878B8700E010E00E94B502D82E8F
:100EB00086E3D816B1F50F5F1F4F06301105C9F054
:100EC0000230110501F10330110544F4011511053B
:100ED00081F00130110509F099C012C004301105EC
:100EE000C1F00430110594F00530110509F08EC0F1
:100EF00013C08FE691E00E94B10400E010E086C0CC
:100F000086E791E00BC08DE791E008C087E091E0B3
:100F100005C08EE091E002C085E191E00E94B1043D
:100F200075C085E3D81689F502301105F1F003305C
:100F3000110544F40115110581F00130110509F086
:100F400065C00FC004301105C1F0043011058CF0EC
:100F50000530110509F05AC014C089819A810196A3
:100F600031C0C70161E070E037C0C70161E070E0E7
:100F700039C0C70161E070E03BC0C70161E070E0CB
:100F80003DC0C70161E070E03FC084E3D816F1F5D1
:100F90000230110521F1033011053CF40115110552
:100FA00071F00130110591F514C00430110519F1EB
:100FB00004301105D4F00530110541F522C08981B6
:100FC0009A8101979A83898397FF20C01A82198298
:100FD0001DC0C7016FEF7FEF0E94B60317C0C701A6
:100FE0006FEF7FEF0E94D80311C0C7016FEF7FEF53
:100FF0000E9424040BC0C7016FEF7FEF0E944504DD
:1010000005C0C7016FEF7FEF0E94690481E090E0A7
:10101000B7010E94DF0682E090E0B7010E94C6049B
:1010200087E3D81609F041CF89819A8190934302D2
:10103000809342028B819C8190934502809344026D
:101040008D819E8190934702809346028F8198857F
:10105000909349028093480289859A8590934B0228
:1010600080934A028B859C8590934D0280934C021D
:1010700084E891E00E94B10481E090E062E472E0D3
:101080000E94DF0682E090E062E472E00E94C60403
:10109000DACE2C960FB6F894DEBF0FBECDBFCF913F
:1010A000DF911F910F91FF90EF90DF9008959F9235
:1010B000AF92BF92CF92DF92EF92FF920F931F9366
:1010C000DF93CF93CDB7DEB72F970FB6F894DEBF7F
:1010D0000FBECDBF80E090E00E942E0FB82E81E0C1
:1010E00090E00E942E0F898382E090E00E942E0FF4
:1010F0008A8383E090E00E942E0F8B8384E090E04F
:101100000E942E0FA82E81E3B81621F481E06AE830
:1011100071E003C081E06DE971E00E942B0282E082
:1011200068E971E00E942B021A8600E010E0E6E018
:10113000CE2ED12CCC0EDD1E7AE2972E6BE0E62E61
:10114000F12CEC0EFD1E0E94B5028823E1F3F6019E
:10115000E00FF11F80831F869B860115110511F09A
:101160008AE201C08FE58C870230110514F08AE213
:1011700001C08FE58D870330110514F08AE201C0AC
:101180008FE58E8782E0B7010E942B020F5F1F4F11
:1011900004301105C1F684EF91E020E931E0F90156
:1011A0003197F1F70197D9F781E3B81671F4AC8262
:1011B0001D82CE010196BE016A5F7F4F0E94250FFE
:1011C00040E050E0009781F52DC00E94D90184EFE6
:1011D00091E020E931E0F9013197F1F70197D9F772
:1011E00080E090E061E30E94360F81E090E06E8144
:1011F0000E94360F82E090E06F810E94360F83E0FC
:1012000090E068850E94360F84E090E069850E9436
:10121000360F84EF91E020E931E0F9013197F1F7E1
:101220000197D9F741E050E0CA012F960FB6F89424
:10123000DEBF0FBECDBFCF91DF911F910F91FF9009
:10124000EF90DF90CF90BF90AF909F90089562E0B5
:1012500070E00E94D50E9B01442737FD4095542F26
:1012600060E472E48FE090E00E94E80ECA01B901E8
:101270000E94D60D0E94110E9B01AC0160E07FEF31
:101280008FE797E40E94430D0895DF92EF92FF925B
:101290000F931F93CF93DF937C018B01C0E0D0E0CD
:1012A000F0E1DF2E0DC0C7010E9427090E94A80DA2
:1012B0007DBD6CBD809165008D2580936500219674
:1012C000C017D10784F3DF91CF911F910F91FF9049
:1012D000EF90DF900895CF93DF9384E090E09093B8
:1012E0004102809340020E94D90184EF91E020E9FD
:1012F00031E0F9013197F1F70197D9F7C0E0D0E07B
:1013000081E062E00E94180280913A0290913B02D3
:10131000892B19F48AEA91E002C082EB91E00E94E5
:101320004A020E94B502803309F4B5C020913A0206
:1013300030913B028733E9F5232BC9F480915C029D
:1013400090915D02892B61F480915E0290915F0221
:10135000892B31F48091600290916102892B39F0E0
:1013600081E090E090933B0280933A0204C0109297
:101370003B0210923A0281E062E00E9418028091E2
:101380003A0290913B02892B19F48AEA91E03CC021
:101390008BE092E06CED75E00E94450982EB91E0F4
:1013A0000E944A028BE061E00E9418028AEB91E001
:1013B0002BC0232B09F064C0863349F52196C43035
:1013C000D10514F0C0E0D0E08BE061E00E9418028B
:1013D000C130D10589F0C230D1051CF4209749F005
:1013E0004FC0C230D10559F0C330D10509F048C013
:1013F00009C080E091E008C087E091E005C082EC80
:1014000091E002C089EC91E00E944A0239C0853324
:10141000C1F4C230D10559F0C330D10569F0C130F3
:10142000D10571F586E592E061E070E019C086E5CE
:1014300092E061E070E01BC086E592E061E070E060
:101440001DC08433E9F4C230D10569F0C330D10541
:1014500089F0C130D105A1F486E592E06FEF7FEF0E
:101460000E9424040DC086E592E06FEF7FEF0E949A
:10147000450406C086E592E06FEF7FEF0E946904A5
:1014800081E090E066E572E00E94C60480ED91E0A4
:101490000E94B10435CFDF91CF9108951F920F9232
:1014A0000FB60F920BB60F9211240F931F932F9329
:1014B0003F934F935F936F937F938F939F93AF93DC
:1014C000BF93CF93DF93EF93FF9382E492E061E0C9
:1014D00070E00E946904809140029091410202975D
:1014E00031F481E792E061E070E00E94690480914C
:1014F0003802909139020197B1F52091680230913C
:10150000690280914802909149022817390759F5DC
:1015100020916A0230916B0280914A0290914B02B5
:101520002817390701F520916C0230916D028091E6
:101530004C0290914D0228173907A9F4C0E0D0E081
:1015400000E911E083E992E060ED77E00E9445094F
:1015500080EA9FE0F8013197F1F70197D9F72196DA
:10156000CA30D10579F780913A0290913B020197F8
:1015700089F586E592E06FEF7FEF0E946904809124
:101580005C0290915D02892B29F580915E02909119
:101590005F02892BF9F48091600290916102892B9E
:1015A000C9F410923B0210923A02C0E0D0E000E988
:1015B00011E083E992E060ED77E00E94450980EA5E
:1015C0009FE0F8013197F1F70197D9F72196CA30DA
:1015D000D10579F780913C0290913D02019749F441
:1015E00080913E0290913F02019690933F0280933A
:1015F0003E02FF91EF91DF91CF91BF91AF919F910B
:101600008F917F916F915F914F913F912F911F919A
:101610000F910F900BBE0F900FBE0F901F9018955B
:101620008BE092E06CEB72E00E9445098CE291E065
:1016300020E931E0F9013197F1F70197D9F78BE013
:1016400092E06CEB72E00E9445090895BF92CF9240
:10165000DF92EF92FF920F931F93CF93DF9385E07A
:1016600090E090934102809340020E94D90184EF60
:1016700091E020E931E0F9013197F1F70197D9F7CD
:1016800000E010E090E9E92E91E0F92E8EE4C82EFA
:1016900082E0D82EB8E0BB2E0E94B502803309F458
:1016A00075C1873391F58BE092E06CED75E00E9497
:1016B000450920E030E080913C0290913D02019785
:1016C00011F021E030E030933D0220933C020130E4
:1016D000110549F40E94D90184EF91E0F701319797
:1016E000F1F70197D9F781E062E00E94180280913A
:1016F0003C0290913D02892B19F48AEA91E002C0E4
:1017000082EB91E00E944A023EC1863309F04AC052
:101710000130110549F40E94D90184EF91E0F701ED
:101720003197F1F70197D9F780913C0290913D02F2
:10173000019721F580916F02909170020497DCF47B
:101740008BE092E064EF71E00E94450980916F02A6
:1017500090917002FC01EE0FFF1FE25BFD4F2091A4
:101760003E0230913F0231832083019690937002B4
:1017700080936F0208C10E94100B05C18BE092E0BC
:101780006CED75E00E944509F6018B2D11928A954A
:10179000E9F71092700210926F0210923F021092BD
:1017A0003E02F1C0853381F40E94D90184EF91E0BB
:1017B000F7013197F1F70197D9F780E090E0012B1D
:1017C00011F481E090E08C010115110509F04CC085
:1017D0008BE061E00E94180280E091E00E944A02E2
:1017E0008BE061E00E941802C0E0D0E004C02196C6
:1017F000CE010E94550180916F0290917002C8172E
:10180000D907ACF381E061E00E94180280913E02AA
:1018100090913F026CE370E00E94D50ECB010E94D4
:1018200029018EE20E94AA0080913E0290913F021F
:101830006CE370E00E94D50E0E94290181E062E015
:101840000E94180280913C0290913D02892B19F46C
:101850008AEA91E002C082EB91E00E944A0286EDA2
:1018600091E00E94B10488C081E061E00E9418020A
:101870008DED91E00E944A0280914E0290914F02BC
:101880000097A1F06CE370E00E94D50ECB010E949E
:1018900029018EE20E94AA0080914E0290914F028F
:1018A0006CE370E00E94D50E0E94290189E061E09E
:1018B0000E94180280EE91E00E944A02809150023C
:1018C000909151020097A1F06CE370E00E94D50E58
:1018D000CB010E9429018EE20E94AA008091500251
:1018E000909151026CE370E00E94D50E0E94290194
:1018F00081E062E00E94180283EE91E00E944A02B9
:1019000080915202909153020097A1F06CE370E035
:101910000E94D50ECB010E9429018EE20E94AA00EE
:1019200080915202909153026CE370E00E94D50EB8
:101930000E94290189E062E00E94180286EE91E08F
:101940000E944A0280915402909155020097A1F0A2
:101950006CE370E00E94D50ECB010E9429018EE25B
:101960000E94AA0080915402909155026CE370E0AD
:101970000E94D50E0E94290180916F029091700201
:101980000E948C0389CE00E010E022CFDF91CF913E
:101990001F910F91FF90EF90DF90CF90BF9008952F
:1019A000CF93DF930E9496021FBC8CE08EBD84E231
:1019B00094EF9BBD8ABD80E187BF0E9445030E94D2
:1019C000E00184EF91E020E931E0F9013197F1F78E
:1019D0000197D9F780E885BF86EE97E090934302A0
:1019E0008093420286E090E0909345028093440207
:1019F00081E090E090934702809346021092490262
:101A00001092480210924B0210924A0210924D021C
:101A100010924C02C0E9D1E009C00E94100B84EF83
:101A200091E0FE013197F1F70197D9F70E9457082D
:101A3000892B99F38BE092E068EE73E00E944509F0
:101A40000E94FF068BE092E068EE73E00E94450979
:101A50000E942A068BE092E068EE73E00E9445093E
:101A60000E94F0048BE092E068EE73E00E9445096A
:101A70000E946B098BE092E068EE73E00E944509DA
:101A80000E94260BD7CF5058BB27AA270ED01CC1C7
:101A90000DD130F012D120F031F49F3F11F41EF43B
:101AA00002C10EF4E095E7FBCFC0E92F1ED180F311
:101AB000BA17620773078407950718F071F49EF54B
:101AC0004DC10EF4E0950B2EBA2FA02D0B01B901DC
:101AD00090010C01CA01A0011124FF27591B99F0A4
:101AE000593F50F4503E68F11A16F040A22F232FB0
:101AF000342F4427585FF3CF469537952795A79500
:101B0000F0405395C9F77EF41F16BA0B620B730BA6
:101B1000840BBAF09150A1F0FF0FBB1F661F771F17
:101B2000881FC2F70EC0BA0F621F731F841F48F4CC
:101B3000879577956795B795F7959E3F08F0B3CF52
:101B40009395880F08F09927EE0F9795879508953C
:101B5000D4D088F09F5790F0B92F9927B751A0F0B3
:101B6000D1F0660F771F881F991F1AF0BA95C9F731
:101B700012C0B13081F0F2D0B1E00895EFC0672F0C
:101B8000782F8827B85F39F0B93FCCF386957795E1
:101B90006795B395D9F73EF49095809570956195CA
:101BA0007F4F8F4F9F4F0895E89409C097FB3EF4F5
:101BB00090958095709561957F4F8F4F9F4F99239A
:101BC000A9F0F92F96E9BB279395F6958795779518
:101BD0006795B795F111F8CFFAF4BB0F11F460FFD8
:101BE0001BC06F5F7F4F8F4F9F4F16C0882311F030
:101BF00096E911C0772321F09EE8872F762F05C044
:101C0000662371F096E8862F70E060E02AF09A95DE
:101C1000660F771F881FDAF7880F9695879597F9D3
:101C2000089585D080F09F3740F491110EF097C051
:101C300060E070E080E89FEB089526F41B16611DBC
:101C4000711D811D07C021C097F99F6780E870E072
:101C500060E00895882371F4772321F09850872B52
:101C6000762F07C0662311F499270DC09051862B5B
:101C700070E060E02AF09A95660F771F881FDAF708
:101C8000880F9695879597F908959F3F31F0915069
:101C900020F4879577956795B795880F911D969550
:101CA000879597F908959FEF80EC089500240A9492
:101CB0001616170618060906089500240A94121627
:101CC0001306140605060895092E0394000C11F45A
:101CD000882352F0BB0F40F4BF2B11F460FF04C007
:101CE0006F5F7F4F8F4F9F4F089557FD9058440F60
:101CF000551F59F05F3F71F04795880F97FB991F6B
:101D000061F09F3F79F08795089512161306140627
:101D1000551FF2CF4695F1DF08C0161617061806B4
:101D2000991FF1CF86957105610508940895E5DF47
:101D3000A0F0BEE7B91788F4BB279F3860F41616E9
:101D4000B11D672F782F8827985FF7CF86957795F5
:101D50006795B11D93959639C8F30895E894BB270C
:101D600066277727CB0197F90895991B79E004C07E
:101D7000991F961708F0961B881F7A95C9F78095CA
:101D80000895AA1BBB1B51E107C0AA1FBB1FA617C2
:101D9000B70710F0A61BB70B881F991F5A95A9F714
:101DA00080959095BC01CD01089597FB092E0726DB
:101DB0000AD077FD04D0E5DF06D000201AF4709534
:101DC00061957F4F0895F6F7909581959F4F0895FF
:101DD00097FB092E05260ED057FD04D014D00AD04B
:101DE000001C38F450954095309521953F4F4F4F4A
:101DF0005F4F0895F6F790958095709561957F4FA8
:101E00008F4F9F4F0895A1E21A2EAA1BBB1BFD0105
:101E10000DC0AA1FBB1FEE1FFF1FA217B307E407C9
:101E2000F50720F0A21BB30BE40BF50B661F771F21
:101E3000881F991F1A9469F7609570958095909501
:101E40009B01AC01BD01CF010895FB01DC018D9127
:101E5000019080190110D9F3990B0895E199FECFF3
:101E60009FBB8EBBE09A99278DB30895262FE199E9
:101E7000FECF9FBB8EBB2DBB0FB6F894E29AE19AC2
:0A1E80000FBE01960895F894FFCFFD
:101E8A0020202020202000486F75722020004D69F4
:101E9A006E757465005365636F6E64004F4E2F4F05
:101EAA004646004F4646004F4E2000416C61726D17
:101EBA000053656F756C20002020202020202020F0
:101ECA002020202020004E59004C4F4E444F4E00F7
:101EDA00544F4B594F004745524D414E004D4F53B9
:101EEA00434F57005349444E455900434849005906
:101EFA006561722020004D6F6E7468200044617421
:101F0A006520200053656F756C004C6F67696E2001
:101F1A00506C6561736521005F5F5F5F0050757487
:101F2A0020796F7572205057210053746F70706555
:101F3A00640052756E6E696E670020202020202092
:101F4A0020004D696E202020005365632020200068
:101F5A0054696D65720073576174636800313A00A1
:101F6A00323A00333A00343A0030313233343536BB
:101F7A003738394142434445463F065B4F666D7DDB
:101F8A00277F6F0000001F001C001F001E001F009B
:101F9A001E001F001F001E001F001E001F000B0056
:101FAA0001000400070000000B00100000001100EF
:061FBA00120001001500F9
:00000001FF
